:020000040800F2
:1000000050070020890100087114000869140008D5
:100010006D14000845020008851400080000000067
:10002000000000000000000000000000791400083B
:100030004902000800000000751400087D14000843
:10004000A3010008A3010008A3010008A301000800
:10005000A3010008A3010008A3010008A3010008F0
:10006000A3010008A3010008A3010008A3010008E0
:10007000A3010008A3010008A3010008A3010008D0
:10008000A3010008A3010008A3010008A3010008C0
:10009000A3010008A3010008A3010008A3010008B0
:1000A000A3010008A3010008A3010008A3010008A0
:1000B000A3010008A3010008A3010008A301000890
:1000C000A3010008A3010008A3010008A301000880
:1000D000A3010008A3010008A3010008A301000870
:1000E0004D020008A3010008A301000800F002F877
:1000F00000F03AF80AA090E8000C82448344AAF188
:100100000107DA4501D100F02FF8AFF2090EBAE885
:100110000F0013F0010F18BFFB1A43F0010318473B
:100120002821000048210000103A24BF78C878C177
:10013000FAD8520724BF30C830C144BF04680C60ED
:10014000704700000023002400250026103A28BF35
:1001500078C1FBD8520728BF30C148BF0B60704739
:100160001FB51FBD10B510BD00F031F81146FFF7E7
:10017000F7FF01F0C1F900F04FF803B4FFF7F2FF09
:1001800003BC00F057F800000948804709480047C1
:10019000FEE7FEE7FEE7FEE7FEE7FEE7FEE7FEE737
:1001A000FEE7FEE704480549054A064B7047000094
:1001B00081140008ED0000085001002050070020C5
:1001C0005003002050030020704770477047754669
:1001D00000F02CF8AE4605006946534620F00700B3
:1001E000854618B020B5FFF7DDFFBDE820404FF091
:1001F00000064FF000074FF000084FF0000BAC4630
:10020000ACE8C009ACE8C009ACE8C009ACE8C0097A
:1002100021F007018D46704710B50446AFF300800A
:100220002046BDE81040FFF7A8BF00000048704717
:100230001000002001491820ABBEFEE72600020096
:1002400070470000FEE70000704700004FF4806038
:1002500000F020B8B0B5044600F042F9054640F27F
:100260000000C2F200000078611C18BF044400BF07
:1002700000F036F9401BA042FAD3B0BDB0F5806F54
:1002800018BF704740F27000C2F20000083001F061
:1002900091BB000040F21441C4F201010A6802421D
:1002A00014BF08607047FFF7E9BF00002DE9F04F69
:1002B00082B00E68002E00F0038141F20042C4F2C9
:1002C0000102042340F2004E904208BF03234FF680
:1002D000FF7CC4F2010E009300240123C1F2100C34
:1002E0004FF0000A4FF0000949E000BF012704F079
:1002F0000C030F229A402BEA020207FA03F34FEA9B
:100300009A051A4346F82520D1F804B040F20C456E
:100310005FEACB22DEF8082054BF22EA080242EA54
:100320000802C4F20105CEF808202A685FEA8B2390
:1003300054BF22EA080242EA08022A605FEA8B33CD
:10034000DEF8042054BF22EA080242EA08025FEA0B
:10035000CB33CEF80420DEF800204FF0010354BF69
:1003600022EA080242EA0802CEF800200E680AF1EA
:10037000010A36FA0AF204F1040400F0A18003FA3B
:100380000AF816EA080FF1D04E68664512DC122E04
:1003900056D8DFE806F0350B4549555555555555A6
:1003A000555555555555554D510000BFD1F80C9038
:1003B00046E000BF4FF6FF72C1F2210296420FDC09
:1003C0000022C1F2110296421AD00022C1F212029A
:1003D000964215D00022C1F22102964210D02FE0A1
:1003E0000022C1F2220296420AD00022C1F231025A
:1003F000964205D00022C1F23202964220D100BFBF
:100400008A684AB1012A14BFC0F81480C0F810806D
:100410004FF0080914E000BF4FF0040910E000BFDE
:10042000CA6802F108090BE04FF0000908E000BFBC
:10043000CA6802F1040903E0CA6802F10C0900BFAE
:1004400022460646BAF1080F24BF203A0436376820
:100450000F25954027EA050509FA02F22A43326082
:10046000CA79D2067FF582AF41F21803C4F20203C3
:100470001A68AEF57E7642F001021A601A6802F040
:1004800001020192019A2AF0030256F802B040F6E6
:100490000002C4F20102904210D040F60042C4F2C1
:1004A000010290423FF422AF41F20002C4F2010285
:1004B000009F904208BF022719E700BF002716E7F8
:1004C00002B0BDE8F08F00008068084018BF01202E
:1004D00070470000002A08BF09040161704700004E
:1004E00040F24810C2F200000068704740F200007D
:1004F00040F24811C2F20000C2F2000100780A681E
:10050000104408607047000080B542F20000C4F259
:100510000200016841F010010160032000F08EF834
:100520000F2000F005F800F027F8002080BD000043
:1005300070B540F20006C2F2000640F208013278BF
:10054000C2F200014FF47A730968B3FBF2F2044679
:10055000B1FBF2F1084600F03BFB0F2C4FF0010518
:1005600008D838B94FF0FF3021460022002500F0AE
:1005700039F87460284670BD82B041F21800C4F2A8
:1005800002000168022241F001010160016801F0EE
:10059000010101910199416841F080514160406839
:1005A00000F08050009000980420C4F2010001681F
:1005B00062F31A61016002B070470000002848BF72
:1005C0007047C1B200F01F00012202FA00F04EF2A3
:1005D0000012CEF2000242EAD10121F003010860CC
:1005E0007047000010B54EF60C5CCEF2000CDCF843
:1005F0000030C3F3022E8EF00704042C28BF04241D
:10060000BEF103034FF0FF3E0EFA04F438BF00239F
:10061000A14399400EFA03F39A43114300F00F02ED
:1006200000F160430901043A03F564436244002881
:1006300048BF02F10C03197010BD00004EF60C51BA
:10064000CEF200010A684FF6FF031A4060F30A2257
:1006500042F0806040F0FD70086070472DE9F04383
:1006600081B0002800F0858042F20008C4F2020840
:100670000446D8F800000D4600F0070088420CD26E
:10068000D8F8000020F007002843C8F80000D8F888
:10069000000000F00700A8426BD1206841F2040975
:1006A0008107C4F2020917D5410705D5D9F8001012
:1006B00041F4E061C9F80010010705D5D9F8001030
:1006C00041F46051C9F80010D9F80010A26821F077
:1006D000F0011143C9F80010C00741D1D8F800005B
:1006E00000F00700A8420CD9D8F8000020F007005D
:1006F0002843C8F80000D8F8000000F00700A8421E
:1007000037D12068410707D5D9F80010E26821F4F5
:10071000E0611143C9F80010000708D5D9F80000BE
:10072000216920F4605040EAC100C9F80000D9F8FE
:10073000002002F00C00082841F20020C0F27A00EC
:1007400050D142F23823C2F38341C0F60003595C12
:10075000D2033BD440F60010C0F23D00484341E0D4
:10076000606802280AD001282AD159F8041C89039C
:1007700008D4012001B0BDE8F08300BF59F8041C83
:100780008901F6D5D9F8001021F003010843C9F812
:100790000000FFF7A5FE064641F28837D9F80000B1
:1007A000616800F00C00B0EB810F97D0FFF798FE66
:1007B000801BB842F2D9032001B0BDE8F08300BF2E
:1007C00059F8041C8907D4D5DCE700BFD9F800200C
:1007D00042F23623C2F34042C0F600039A5C48431B
:1007E000B0FBF2F0D9F8001042F22622C1F3031157
:1007F000C0F60002515C40F2080220FA01F140F21A
:100800000400C2F200000068C2F200021160FFF7AB
:100810008FFE002001B0BDE8F08300002DE9F0411B
:1008200082B0002868D00446007841F20006C00774
:10083000C4F2020625D0706800F00C0004281BD01A
:10084000706800F00C00082802D17068C00313D44F
:100850006068002800F06881B0F5A02F00F07C816E
:10086000B0F5803F00F07C81306820F4803030604B
:10087000306820F4802076E13068800301D560681C
:10088000D0B32078800718D5706810F00C0F07D00F
:10089000706800F00C0008286ED17068C0036BD43B
:1008A0003068800702D52069012825D13068616948
:1008B00020F0F80040EAC1003060207800071FD423
:1008C0002078400732D4E56995B1706800F00C00DB
:1008D000082840F08F80012D0ED07068216A00F446
:1008E00080328A4208D1616A00F47010884203D1D4
:1008F000002002B0BDE8F081012002B0BDE8F08127
:10090000A069002862D00020C4F242200121C0F872
:100910008014FFF7E5FD0546706A800700F18C80C2
:10092000FFF7DEFD401B0228F6D92AE1F06910F03E
:10093000805808D1F06940F08050F061F06900F013
:1009400080500090009847F20007C4F20007386812
:10095000C00529D4386840F480703860FFF7C0FDC6
:10096000054600BF3868C0051ED4FFF7B9FD401B1F
:100970006428F7D905E100BF2069002840F2000093
:10098000C4F2422000F0828001210160FFF7A8FD3F
:10099000054600BF306880073FF588AFFFF7A0FD30
:1009A000401B0228F6D9ECE0E068002800F08080C7
:1009B000052800F09780012800F09880306A20F028
:1009C00001003062306A20F0040092E00020C4F29E
:1009D00042200021C0F88014FFF782FD054600BFC9
:1009E000706A80077FF56CAFFFF77AFD401B022825
:1009F000F6D9C6E00027C4F2422700203866FFF788
:100A00006FFD022D05460BD13068800140F1BE809C
:100A1000FFF766FD401B02284FF00300F4D968E79A
:100A2000306880017FF564AFFFF75AFD401B022854
:100A30004FF00300F4D95CE740F20800C2F2000076
:100A4000006844F6D351C1F26201A0FB0101480ADB
:100A5000019000BF00BF0198411E002801913FF4A2
:100A60002FAF00BF0198411E002801913FF428AF2D
:100A700000BF0198411E002801913FF421AF00BF43
:100A80000198411E00280191E4D119E7002101607D
:100A9000FFF726FD054600BF306880077FF50DAFE4
:100AA000FFF71EFD401B02284FF00300F4D920E79A
:100AB000306A20F001003062306A20F004003062B9
:100AC000FFF70EFD054641F2883700BF306A800708
:100AD00020D5FFF705FD401BB8424FF00300F5D9C4
:100AE00007E700BF306A40F004003062306A40F02F
:100AF00001003062FFF7F4FC054641F2883700BF81
:100B0000306A800706D4FFF7EBFC401BB842F7D9E8
:100B100037E000BFB8F1000F7FF4D5AEF06920F0E8
:100B20008050F061CFE600BF306820F48030306044
:100B3000306820F480203060FFF7D2FC054600BF0B
:100B4000306880037FF59DAEFFF7CAFC401B642828
:100B50004FF00300F4D9CCE6306840F480203060D8
:100B6000306840F480303060FFF7BAFC054600BFC3
:100B7000306880033FF585AEFFF7B2FC401B642868
:100B8000F6D9032002B0BDE8F08100BF206AB0F5BD
:100B9000803F05D17168A26821F400311143716072
:100BA0007168626A21F47411114308437060012076
:100BB0003866FFF795FC0446306880013FF598AE33
:100BC000FFF78EFC001B02284FF00300F4D990E6DB
:100BD000411E0020B0EB116F1CBF012070474EF288
:100BE0001002CEF2000251604EF62351CEF2000107
:100BF000F0230B700721906011607047B0B590F83A
:100C00003C20012A04BF0220B0BD01F108053CCD03
:100C1000D1E900CE23F47C5322F470521A432EF40F
:100C2000F0431A432CF4E0431A4324F4C0431A431C
:100C30002A43C96922F480420368114359640021A0
:100C400080F83C100846B0BD10B590F83C20012A51
:100C50004FF0020233D080F83D200268D2F804E061
:100C6000D2F808C00C682EF07003234340F2FF74E2
:100C7000C4F20004A24253600ADCB2F1804F13D0E8
:100C800040F20043C4F200039A420DD011E000BFCD
:100C900042F60043C4F201039A4205D040F6000335
:100CA000C4F200039A4204D149682CF0800319432E
:100CB00091600121002280F83D1080F83C20104610
:100CC00010BD0000002804BF0120704710B5044685
:100CD00090F83D0028B9002084F83C00204600F040
:100CE00067F8022084F83D00206840F2FF73026834
:100CF000C4F2000342F6004C9842C4F2010C15DC29
:100D0000B0F1804F1AD040F20041C4F20001884295
:100D100014D0984218DCB0F1804F1DD040F2004151
:100D2000C4F20001884217D01AE000BF604505D028
:100D300040F60001C4F200018842EAD1A16822F025
:100D400070020A439842E6DD604505D040F6000196
:100D5000C4F20001884203D1216922F440720A439F
:100D6000A36922F08001D4F804E0E26819436045E9
:100D70000160C262C0F828E002D16169CCF830108D
:100D800001214161002084F8461084F83E1084F867
:100D90003F1084F8401084F8411084F8421084F821
:100DA000431084F8441084F8451084F83D1010BDB9
:100DB00082B00068B0F1804F14D042F60041C4F216
:100DC000010188421BD141F21800C4F202000168FF
:100DD00041F400610160006800F400600190019836
:100DE00002B0704741F21800C4F20200416841F0BD
:100DF00001014160406800F001000090009802B0DD
:100E00007047000090F83D1001291CBF0120704779
:100E1000022180F83D10006840F2FF71C4F2000129
:100E2000884209DCB0F1804F12D040F20041C4F298
:100E3000000188420CD012E042F60041C4F20101E8
:100E4000884205D040F60001C4F20001884206D174
:100E5000816801F00701062904BF0020704701687E
:100E600041F0010101600020704700000146006868
:100E700041F21113026A1A4204D00122002081F8C3
:100E80003D207047026A40F244431A42F5D102689D
:100E900022F0010202600122002081F83D2070470B
:100EA00080B590F83C20012A4FF0020200F0C28089
:100EB00080F83D20D0F800C04FF67772DCF808309B
:100EC00023EA0202CCF808200B684F2B28DC1F2BEA
:100ED00044DD202B45D0302B43D0402B40F0AC805C
:100EE000D1F804E0C968DCF82030DCF8202022F0DA
:100EF0000102CCF82020DCF8182022F0F00242EAAF
:100F0000011123F00A0242EA0E02CCF81810CCF8C4
:100F10002020DCF8081041F0470121F0300180E08A
:100F20006F2B27DDB3F5005F48D0B3F5805F7AD033
:100F3000702B40F08180D1E901E3C968DCF808201A
:100F400043EA0E0322F47F4243EA01211143CCF825
:100F50000810DCF8081041F0770162E00BB1102BAB
:100F60006AD1DCF8081021F07001194341F0070143
:100F700057E000BF502B35D0602B5DD1D1F804E095
:100F8000C968DCF82030DCF8202022F01002CCF810
:100F90002020DCF8182022F4704242EA013123F0CC
:100FA000A00242EA0E12CCF81810CCF82020DCF88F
:100FB000081041F0670121F0100132E0D1E901E3AE
:100FC000C968DCF8082043EA0E0322F47F4243EAB2
:100FD00001211143CCF80810DCF8081041F48041DD
:100FE0001FE000BFD1F804E0C968DCF82030DCF86D
:100FF000202022F00102CCF82020DCF8182022F07A
:10100000F00242EA011123F00A0242EA0E02CCF891
:101010001810CCF82020DCF8081041F0570121F01E
:101020002001CCF808100022012180F83D10002199
:1010300080F83C10104680BD0122F5E780B586B0EF
:10104000014640F60000C4F20100096800F51053A3
:1010500000229942049201D006B080BD41F21801ED
:10106000C4F202010A6842F004020A60096801F051
:101070000401019101994FF4407102910221039101
:10108000059102A9FFF712F906B080BD2DE9F043E2
:1010900090F83C30012B04BF0220BDE8F0834FEAFA
:1010A000B202032A3CD8DFE802F0034381BD00BF4F
:1010B000036842F600461D6A1A6AC4F2010622F06D
:1010C00001021A621A465C6852F818CFB3428E6861
:1010D000D1F800E025F0020545EA06050CD1CE68FE
:1010E000D1E9057824F4407425F00C0526F00406B7
:1010F0003C43354344EA08042CF0730747EA0E07E3
:101100005C609F614F6809695F631D629F6947F07A
:1011100008079F619F6927F004079F61B2E000BF45
:101120000121002280F83C200846BDE8F08300BF82
:10113000036842F600461D6A1A6AC4F2010622F0EC
:1011400010021A621A46D3F804C052F8184FB3427C
:101150008E68D1F800E025F0200545EA061510D18B
:10116000CE68D1E9058725F0C0096FF0400505EA92
:1011700006152CF4406647EA080745EA090546EAE1
:10118000870C24F4E64444EA0E27C3F804C09F61A8
:101190004F6809699F631D629F6947F400679F61FB
:1011A0009F6927F480679F616BE000BF036842F688
:1011B00000461D6A1A6AC4F2010622F480721A629D
:1011C0001A46D3F804C052F81CEFB3428E680C687C
:1011D00025F4007545EA062511D1CE68D1E90587C9
:1011E00025F44069360240F2FF4526EA05052CF455
:1011F000405647EA080745EA090546EA071C2EF06B
:1012000073072743C3F804C0DF614F680969DF63D0
:101210001D62DF6947F00807DF61DF6927F0040717
:10122000DF612FE0036842F60047D3F820C01A6A56
:10123000C4F2010722F480521A621A465C6852F81E
:101240001C5FD1F800E08E68BB4204D14F6924F4E2
:10125000804444EA87142CF4005747EA063725F403
:10126000E64646EA0E265C60DE614E6809691E6449
:101270001F62DF6947F40067DF61DF6927F4806779
:10128000DF6109021368194311600021002280F810
:101290003C200846BDE8F083002804BF01207047C9
:1012A00010B5044690F83D0028B9002084F83C00B1
:1012B000204600F067F8022084F83D00206840F2E4
:1012C000FF730268C4F2000342F6004C9842C4F275
:1012D000010C15DCB0F1804F1AD040F20041C4F28D
:1012E0000001884214D0984218DCB0F1804F1DD024
:1012F00040F20041C4F20001884217D01AE000BF5A
:10130000604505D040F60001C4F200018842EAD1F0
:10131000A16822F070020A439842E6DD604505D0DC
:1013200040F60001C4F20001884203D1216922F491
:1013300040720A43A36922F08001D4F804E0E26815
:10134000194360450160C262C0F828E002D16169BA
:10135000CCF8301001214161002084F8461084F857
:101360003E1084F83F1084F8401084F8411084F84F
:10137000421084F8431084F8441084F8451084F82F
:101380003D1010BD7047000041B1082910D004295C
:1013900014BF00F1410200F13F020BE090F83E2043
:1013A000012A1CBF01207047022280F83E2013E072
:1013B00000F140021278012A1CBF0120704702226E
:1013C000082907D0042914BF80F8412080F83F2065
:1013D00002E000BF80F84020006801F01F010122F8
:1013E000036A8A4023EA02010162036A42F6444129
:1013F000C4F201011A43A1F14403984202620FD0E2
:1014000040F2FF71C4F20001884213DCB0F1804F5A
:101410001CD040F20041C4F20001884216D01CE00A
:101420000A6842F400420A6040F2FF71C4F200010F
:101430008842EBDD42F60041C4F20101884205D04A
:1014400040F60001C4F20001884206D1816801F033
:101450000701062904BF00207047016841F001011F
:101460000160002070470000FEE70000FEE700007A
:10147000FEE700007047000070470000FFF736B835
:1014800070470000FEE70000B0B540F27005002193
:10149000C2F20005C4F220210446686000F0C2FDDB
:1014A00060B90021C4F22021204600F0BBFD0028D5
:1014B00018BFB0BD00202870B0BD00BF022028704A
:1014C000B0BD0000B0B50C4600F07FFC0023C4F2B4
:1014D0005903002200F0F0FA22680446D06A0D4653
:1014E00000F073FC02460B462046294600F080FCC3
:1014F00000F03CFCB0BD00009AB0FFF705F80025F5
:101500000120CDE90755CDE90555029006904FF42D
:10151000E0104FF4803102240B9002A8CDE90315AE
:10152000CDE90941FFF77AF920B1EFF3108072B6E7
:10153000FEE700BF0F200CA931C14FF480640CA856
:101540000221CDE90F45FFF789F828B1EFF31080AC
:1015500072B600BFFEE700BF41F21800C4F20200FD
:10156000016840F6000B41F0200101600168C4F2FF
:10157000010B01F020010291029901680BF58069CD
:1015800041F0080101600168002201F008010291A8
:10159000029901684FF4404641F00401016000687F
:1015A0004FF4404100F004000290029848460027A2
:1015B000FEF790FF58464FF4006100224FF4006898
:1015C000FEF788FF029602AE01254FF0020A484658
:1015D0003146CDE90357CDF814A0FEF767FE002091
:1015E000C1F23100CDE90305584631460294FEF7B9
:1015F0005DFE58463146CDE90285CDE9047AFEF715
:1016000055FE282001210022FEF7ECFF2820FEF7DE
:10161000D5FF40F2B4000BF51051C2F2000040F2C9
:10162000E7331997CDE91777CDE914770897472263
:1016300080E88600C0E90337C0E90577FFF742FB81
:1016400020B1EFF3108072B6FEE700BF4FF4805078
:10165000169040F2B400C2F2000016A9FFF720FC79
:1016600020B1EFF3108072B6FEE700BF40F2B40085
:10167000C2F20000FFF710FE20B1EFF3108072B647
:10168000FEE700BF40F2B400C2F2000014A9FFF769
:10169000DBFA28B1EFF3108072B600BFFEE700BF9F
:1016A00060200C900020CDE90D00CDE90F00CDE9C0
:1016B000110040F2B400C2F200000CA90022FFF7B2
:1016C000E5FC28B1EFF3108072B600BFFEE700BF63
:1016D00040F2B400C2F200000CA90422FFF7D6FCCD
:1016E00020B1EFF3108072B6FEE700BF4FF4005058
:1016F000079040F2B4000024C2F2000002A9069450
:10170000CDE90444CDE902440994FFF777FA28B102
:10171000EFF3108072B600BFFEE700BF40F2B405E1
:10172000C2F200052846FFF789FC40F2FC00C2F235
:1017300000004FF080414FF6FF730594CDE903445C
:10174000CDE90C44472280E81600C0E903348461E7
:10175000FFF7B8FA20B1EFF3108072B6FEE700BFD2
:101760004FF48050029040F2FC00C2F2000002A947
:10177000FFF796FB20B1EFF3108072B6FEE700BFD3
:1017800040F2FC00C2F200000CA9FFF75DFA18B1AC
:10179000EFF3108072B6FEE740F2700AC2F2000A60
:1017A0000AF11C08404600212A464FF48043CDF838
:1017B00000902C46002600F0D7F80AF13007384692
:1017C00004212A464FF40043CDF8009000F0CCF8F5
:1017D0000AF1080540F2FC014FF4806CC2F20001EE
:1017E00028465A464FF40063CDF800B0CDF804C047
:1017F00000F00AF9284600F013F92068002146623B
:101800002046FFF7C1FD20460421FFF7BDFD02E0A1
:10181000284600F0AFF89AF8000002280CD0012802
:1018200012D0D8B940460121642200F025F838468C
:101830000121642210E000BF38460021002200F0A0
:101840001BF8404606E000BF40460221322200F06D
:1018500013F838460221322200F00EF8FEF740FE5F
:10186000801BB0F5967FD3D3284600F0D9F8FEF759
:1018700037FE0646CCE7000070B5836804460E4686
:1018800010461946FFF71EFE022E054618D0012EFF
:101890002AD0002E49D12069A1890022FEF71AFE24
:1018A00060684FEAB00003283FD8DFE800F0033F4C
:1018B000454B00BFA06800210068416370BD00BFB8
:1018C0002069A1890022FEF705FE60684FEAB0009A
:1018D000032888BF70BDDFE800F003211D2500BF8D
:1018E000A0680068456370BD2069A1890122FEF7E8
:1018F000F1FDA068626800684FEAB202C16A032A7B
:1019000013D8491BDFE802F00224282C89B2416376
:1019100070BD00BFA0680068C56370BDA0680068A6
:10192000856370BDA0680068056470BDA068002173
:101930000068816370BD00BFA06800210068C163BA
:1019400070BD00BFA06800210068016470BD00BFC9
:1019500089B2816370BD00BF89B2C16370BD00BF31
:1019600089B2016470BD00000430DDF800C080E879
:101970000E10704710B540F24414C2F200042178F2
:10198000032918BF10BD00680068406A00F01DFA06
:101990004CF29C4246F67203CBF22002C3F69173DE
:1019A00000F026FA00F056F8FFF76EFD00202070D8
:1019B00010BD0000B0B540F24415C2F20005297810
:1019C0000446022910D0012913D1E068218AFEF7CC
:1019D0007BFD01280DD12068002201684A62FFF7D3
:1019E00011FA02202870B0BDE068218AFEF76CFD74
:1019F00010B100202870B0BD206803212970BDE817
:101A0000B040FFF733BA000080B5DDE902ECC0E971
:101A100000120381C0F80CE0A0F810C080BD0000E7
:101A200070B540F24415C2F200052978002918BFAC
:101A300070BD04464068218901220126FEF74AFD57
:101A40000120FEF707FC606821890022FEF742FDB5
:101A50002E7070BD21F0004201F00043A2F16052EF
:101A6000B2F5801F28BFD2F17F6C0BD95FEA001C52
:101A700043EAC20242EB507018BF704728BF20F003
:101A800001007047B2F5801FBCBF184670474FEA8F
:101A9000410C1CF5001F02D2084600F0BFBB70B518
:101AA00000F050FA00000089FFF7F6BF4FF0004049
:101AB000A0F58000704700002DE9C04130B4DFF888
:101AC000A4C23CEA111418BF3CEA131400F0ED80E4
:101AD0001CEA111481EA030544EAD57418BF1CEA14
:101AE000131500F0C880A4EB050404F17F7404F51D
:101AF00000344FF0004545EAC12145EAC32341EADD
:101B0000505143EA52534FEAC0204FEAC222994251
:101B100008BF904200F09D804FEA13650FF2441613
:101B2000765D4FEA134506FB05F7C7F1807706FBA4
:101B300007F74FEAD737A7FB03687642A7FB06CE25
:101B4000C8F5803838BFA8F1010807FB08E6A6FBF6
:101B5000028C4FF0000EE6FB03CEDCF1000CCEF160
:101B6000004E38BFAEF1010EA6FB0C584FF0000737
:101B7000E6FB0E87A1FB08C6A0FB07CE16EB0E0600
:101B80004FF0000545F10005E1FB076515F1E04E5A
:101B90007EBFA4F580345FEA46066D4116F18007EA
:101BA00045F100054FEA172747EA05674FEA152573
:101BB0004FEA0666A6F1DE46B6F1805F20D93846C8
:101BC00005EBC47124F0010C01EB0C11BCF1FE6FAC
:101BD00002D8F0BCBDE8008124425CBF01F5801E44
:101BE0009EEAC47F02D4F0BCBDE80081244200F12B
:101BF0003980A1F1C041F0BCBDE8004100F0F0B96E
:101C00004FEAD02040EA41504FEAD1214FEAD22298
:101C100042EA43524FEAD323A7FB028607FB03663F
:101C200005FB02661EEA0E0F58BFA6EB0056B6EB88
:101C300000564FEA520E4EEAC37E18EB0E0E56EBDC
:101C4000530EBCD518EB02085E417F1C55F1000510
:101C5000B5E74FF480154FF000074FF000064FF046
:101C60000008ACE701F1C04101F000414FF0000075
:101C7000F0BCBDE800810CEA131511EA0C1F00D07E
:101C80000CE013EA0C1F00F026804FF0000081EA00
:101C9000030101F00041F0BCBDE80081F0BCBDE8EB
:101CA000004181EA030100F09BB9F0BCBDE80041AE
:101CB00070B500F047F900BF097EFC3E00F007B8A0
:101CC0004FF0000081EA030101F00041704781EA12
:101CD000030100F085B9F0BCBDE8004122494FF096
:101CE00000007047FFFDFBF9F7F5F4F2F0EEEDEBC5
:101CF000E9E8E6E4E3E1E0DEDDDBDAD8D7D5D4D30A
:101D0000D1D0CFCDCCCBCAC8C7C6C5C4C2C1C0BF55
:101D1000BEBDBCBBBAB9B8B7B6B5B4B3B2B1B0AF5B
:101D2000AEADACABAAA9A8A8A7A6A5A4A3A3A2A13F
:101D3000A09F9F9E9D9C9C9B9A99999897979695FA
:101D400095949393929191908F8F8E8E8D8C8C8B96
:101D50008B8A89898888878786858584848383821E
:101D6000828181800000FF070000F87F4FEA410375
:101D70004FEA5353A3F58063D3F11E03C8BFD3F1D9
:101D8000210C0CDD4FF0004242EAC12242EA5052DF
:101D900032FA03FC8CEAE17CACEBE1707047102B6B
:101DA000C4BF0020704703F5787CBCF1FF3F04D02E
:101DB0006FF0004282EA2100704770B500F0C2F86F
:101DC0004992248000207047F2E7B0FA80F310FABD
:101DD00003F10AD0C3F11D0303F580634FEA0352F8
:101DE0004FEA415002EBD12170474FF0000070479D
:101DF00070B5DFF848C11CEA111E1EBF1CEA13159E
:101E00009EEA0C0F95EA0C0F00F06F8081EA030444
:101E10004EEAD47EAE4421EA4C1123EA4C1341F43D
:101E2000801143F48013AEF17F7EA1FB024CA0FB36
:101E30000365361955EB0C05A1FB034C4CF100036F
:101E4000A0FB021C16EB0C06654153F1000309428E
:101E500018BF46F0010613F4007F0BD14FEA03319F
:101E60004FEA053041EA155140EA165034036FF04D
:101E700003020AE04FEAC3214FEAC52041EA555167
:101E800040EA5650F4026FF0020202EB2E4201EBE0
:101E9000025585EACE710AD05FEA440C18BF24F0DF
:101EA000004450F1000041F1000120EAD47040F2FA
:101EB000FE7C624500D270BDA84214BF4FF0804442
:101EC0004FF04044002E08BF0024BEF1806FA8BF31
:101ED000A1F1C041BDE8704080F2828001F1C041B3
:101EE00001F000414FF0000070470CEA13159EEA24
:101EF0000C0F18BF95EA0C0F06D081EA030E4FF0C5
:101F000000000EF0004170BD00F01CF88900013E99
:101F100000F007B800F009B84FEA430C5FEA5C5CD8
:101F200008D081EA030100F05BB84FEA410C5FEA98
:101F30005C5CF6D102494FF0000070470000FF07DB
:101F40000000F87F0EF1020E2EF0030E5EF8046B17
:101F5000364205D4012A43EB030515F5001F12D8BC
:101F6000012841EB010C1CF5001F0CD80ED14FEAE3
:101F7000D17C0CEB4C0C0CF1020C15F5001F08BFCA
:101F80004CEBD37C04E04FF0080C01E04FEAD37C2B
:101F90000CEB4C0526FA05F606F00706B6F1040C24
:101FA00006D20EEB860CBDE870404CF0010C604789
:101FB000DFE80CF0090B02024FF00041A1F500210F
:101FC0004FF0000070BD19461046012851EB010486
:101FD00018BFD4F5001484BF002001F0004170BD8B
:101FE0000808A0F500114FEA3101704710B500F064
:101FF00033F80CBF0120002010BD10B500F02CF804
:1020000014BF0120002010BD10B500F059F88CBF9E
:102010000120002010BD10B500F052F82CBF0120A7
:10202000002010BD10B500F07FF894BF0120002003
:1020300010BD10B500F078F834BF0120002010BDAD
:10204000401058BFC0F14040491058BFC1F1404155
:102050008142EFF30080704750EA010C00F11380D9
:102060001CF5000F58BFBCF5000F01D48842704723
:1020700007D710F5000F58BF11F5000F15D488428F
:102080007047894270471CF5000F04D5BCF5000F5E
:10209000F7D5814270474FF0807C1CEB400F38BF72
:1020A0001CEB410F01D28142704710B500F070F86F
:1020B000922449004FF000504FF08051FFF7C0BF0D
:1020C00050EA010C00F113801CF5000F58BFBCF55D
:1020D000000F01D48842704707D710F5000F58BF92
:1020E00011F5000F15D488427047894270471CF5DE
:1020F000000F04D5BCF5000FF7D5814270474FF0B3
:10210000807C1CEB400F38BF1CEB410F01D2814299
:10211000704710B500F03CF8922449004FF0805011
:102120004FF00051FFF78CBF50EA010C00F1138013
:102130001CF5000F58BFBCF5000F01D48842704752
:1021400007D710F5000F58BF11F5000F15D48842BE
:102150007047894270471CF5000F04D5BCF5000F8D
:10216000F7D5814270474FF0807C1CEB400F38BFA1
:102170001CEB410F01D28142704710B500F008F806
:10218000922449004FF000504FF08051FFF758BFA4
:102190000EF1020E2EF0030E5EF8044B244204D41E
:1021A0004FEA4102B2F17F4F11D84FEA4003B3F139
:1021B0007F4F0CD80ED14FEAD07C0CEB4C0C0CF1BD
:1021C000020CB2F17F4F08BF4CEBD17C04E04FF022
:1021D000080C01E04FEAD17C0CEB4C0324FA03F429
:1021E00004F00704B4F1040C06D20EEB840CBDE835
:1021F00010404CF0010C6047DFE80CF007080202C9
:102200004FF00040A0F5800010BD0846420018BF06
:10221000D2F1807288BF00F0004010BDFF2141EA7A
:10222000D050C0057047000000000000000001020F
:10223000030406070809010202030405060708094A
:102240000A0B0C0D0E0F1010682200080000002071
:10225000100000002801000878220008100000206B
:1022600040070000440100080100000010000000C9
:082270000024F400000000004E
:04000005080000ED02
:00000001FF
